:020000040800F2
:10000000A81000204D6B0008196900081B69000842
:1000100000000000000000000000000000000000E0
:100020000000000000000000000000001D69000842
:1000300000000000000000001F690008216900089E
:100040005B130008000000007B1800087F18000800
:1000500083180008AF2E0008673C0008775100089D
:10006000000000004F5200088B520008176900087A
:1000700069690008336A0008236B0008000000006B
:100080002F6B00085D6B00085F6B0008616B000858
:10009000636B0008656B000889690008676B0008DE
:1000A000696B00086B6B00086D6B00086F6B0008D4
:1000B000716B0008736B0008FDB5B2B03A980491FB
:1000C00002A93B22885400200D9024A8401C2F90A8
:1000D0000DE00498329A90470490002801D100F076
:1000E00001FF0D98401C0D903398401C33903398BD
:1000F0000178002910D02529EBD100200790089025
:1001000009900A900B900C90002102240120149079
:1001100008201290339D05E00D9800F0E5FE0800E0
:10012000149901436D1C28782028F8D023280BD07F
:100130002B2804D02D2804D0302808D00AE02143F1
:10014000F0E708000421ECE708000821E9E70800CF
:100150001021E6E72A280FD1349802681068121D92
:10016000349B1A600F90002804D542420F92080079
:10017000042101436D1C12E000200F90654A09E044
:100180000F9B934205DA9E00F3185B001818303875
:100190000F906D1C28780300303B0A2BF0D3287891
:1001A0002E2803D00020C0430E9027E06D1C287835
:1001B0002A2808D1349800680268001D349B186012
:1001C0000E926D1C1AE02D2802D12D226D1C00E02C
:1001D000002200200E900CE0002A09D10E9B4D4E0B
:1001E000B34205DA9E00F3185B00181830380E9001
:1001F0006D1C28780300303B0A2BEDD302A8018741
:100200002E78310041487844FF30C01C00F052FF86
:10021000002801D06D1C00E0002602A83A214654B7
:10022000405C682804D1287868280BD1622005E05A
:100230006C2807D128786C2804D1712002A93A22B1
:1002400088546D1C15A80690287869460870681CAB
:100250003390684602781000253833D01C3800D11E
:1002600016E2001F022800D812E2133801D100F074
:1002700065FD093800D10BE2801E01D100F0FBFDC5
:10028000401E01D100F0A8FD401E022800D8FFE169
:10029000001F01D100F0A0FD401F00D152E1401E1F
:1002A00001D100F04BFD401E00D1F3E0C01E10D084
:1002B000801E01D100F042FDC01E01D100F03EFDC4
:1002C00000F0E4FD252015A908701498079000F0AF
:1002D000E8FD349800680468001D349908600594AE
:1002E000002C00D0C2E002A83B21405C002800D1D5
:1002F000B5E00024E44306487844143000F022FFBF
:10030000201A01D000F0EEFD00F0CBFDBC6600002D
:10031000F0660000CBCCCC0C01236A4602A9280071
:1003200000F0ADFE002801D000F0DCFD641EF3D12A
:100330003295079D15AC002D0FD0329E227802A970
:10034000300000F08BFE002802D4641C6D1EF5D135
:100350003296002801D000F0C5FD302069460870B3
:100360000A9C002C0DDD329D01236A4602A928005B
:1003700000F085FE002801D000F0B4FD641EF3D12A
:100380003295059C089D002D0FD0329E227802A93F
:10039000300000F063FE002802D4641C6D1EF5D10D
:1003A0003296002801D000F09DFD302769460F707D
:1003B0000B9C002C0DDD329D01236A4602A928000A
:1003C00000F05DFE002801D000F08CFD641EF3D12A
:1003D0003295059808994418099D002D0FD0329E3A
:1003E000227802A9300000F039FE002802D4641CF3
:1003F0006D1EF5D13296002801D000F073FD6846DD
:1004000007700C9C002C0DDD329D01236A4602A969
:10041000280000F034FE002801D000F063FD641EC7
:10042000F3D1329502A83821405C400700D45EE643
:100430002020694608700198002800DC57E6019CDE
:10044000329D01236A4602A9280000F018FE002808
:1004500001D000F047FD641EF3D1329547E63F48D6
:100460007844FF30C01F059000F01BFD0E9D002D4D
:1004700003D5200000F08AFE09E02A0000212000B8
:1004800000F090FE002801D0001B00E0280008903A
:1004900000F007FD349800680268001D3499086078
:1004A0000020C0430021104002AA03C215A80590F5
:1004B000069A3C2302A803C8002904D1002802D1CF
:1004C0000E9C002C14D05B1E05072D0F30353A2DE5
:1004D00008DAD55400090C072043090904D1002883
:1004E00002D105E02735F4E7059CD518AC42EAD3E4
:1004F0003C20C01A0890D11805910E99884208DA5C
:10050000081A0A9002A8018FAA4A0A40028700F03E
:10051000C8FC002901D400F0C4FC02A93822895C7F
:1005200014220A40102A01D000F0BBFC0F99079A50
:10053000891A0A9A891A081A002801DC00F0B1FC0D
:1005400000F0FAFB02A83B21415C002908D00024FE
:10055000E4434B487844FF302930CFE6C0640000C4
:100560003A21405C62286AD0682819D06A2845D0B0
:100570006C2806D071284FD0742831D07A2821D029
:100580006FE0349800680168001D349A10600029FB
:100590007AD10024E4433B487844FF301738ADE675
:1005A000349800680168001D349A1060002905D154
:1005B0000024E44333487844CA309FE60D9808800D
:1005C00000F06FFC349800680168001D349A1060D8
:1005D000002959D10024E4432A487844A6308DE606
:1005E000349800680168001D349A106000294BD1CE
:1005F0000024E443234878448A307FE63498006836
:100600000268001D34990860002A13D10024E443D5
:100610001C4878446E3071E6349800680268001D0A
:1006200034990860002A05D10024E4431548784431
:10063000523063E60D98C11703C200F032FC3498C3
:1006400000680168001D349A1060002905D100245B
:10065000E4430C4878442C3050E60D98087000F0C4
:1006600020FC349800680168001D349A106000294D
:100670000AD10024E4430348784408303EE600BF32
:1006800050630000646300000D98086000F009FCEE
:1006900034980368DB1D072083433498036003CB41
:1006A000349D2B6002AB03C32023C80F04D00798EE
:1006B0002D2115AB19540DE002A8008F204204D063
:1006C00007982B2115AB195404E0C00704D50798EF
:1006D00015A90B54401C079015A8079943180593BA
:1006E00024AD02A8C0C868460078202101436846AE
:1006F0008170807861280BD00E98002801D50620E3
:1007000005E005D168468078672801D114980E90DD
:1007100002A803C808004C006415641C0ED109032C
:100720000CD003200890613A1A2A03D22249794456
:1007300086310FE02149794482310BE0002C0ED143
:1007400000030CD103200890613A1A2A1DD31C49DA
:1007500079446C310322180000F04AFDA1E301AA9C
:1007600002A803C800F051FD02AA03C268468078BF
:10077000612813D1059830210170811C05916946CB
:100780000978612905D1782104E00E497944343192
:10079000E0E7582141700798801C079002A803C821
:1007A00092A20CCA02400B400ED1002A0CD10024A8
:1007B000002660E1EFFF0000686200006862000050
:1007C0006C6200006462000068468078612800D096
:1007D00099E00E98002801D5212000E0401C1390DC
:1007E0001398401C2E90300039000022002300F0A6
:1007F00021FD02A830C802D28020000645400198A1
:10080000001F019024A90A7024A8461C2E980028D5
:1008100032DD2E9F20002900002280235B0300F0A0
:1008200022FD29D81C2200F037FD04000D0000F045
:100830006BFD2E90FF1F002F09DD00F09FFD0200D1
:100840000B002000290000F006FE04000D00F01D42
:1008500007212E9A002A0ADD491E08D4401E1307DC
:100860001B0F03701211F5E7401E00220270491E93
:10087000FAD5C61D002FCDDC24A82F99711A24AA01
:10088000551C139A0C00914200DD1400002C33D447
:100890008C4205DA411C095D082901DB0F2100E0CB
:1008A0000021220024AB9B1801E0641E5B1E521E37
:1008B0001E788E42F9D00F2904D1411C895C491C55
:1008C000401C8154002A04D524AD641C0198001DED
:1008D0000190611E10D46A1868460078137830338E
:1008E000DEB23A2E01DBC318C6331370491E521E06
:1008F0000029F3D5694608700E98002800D4B9E0A5
:10090000601E0E90B6E07F007F080198684948435A
:10091000684900F017FE019007200199401A00284D
:1009200005DD02003000390000F072FB0AE04242AF
:100930000020614900F06CFB02000B003000390020
:1009400000F02FFE6A469278662A02D1019A0A3296
:1009500000E006220E9B9A18142A00DD142224AB14
:1009600030241C705C1C02E030A803C8139A002AD3
:1009700040DD30AB03C3139230A803C800F0D6FCAF
:100980002E9006460834042530000A2100F0EEFDC2
:100990000F0030000A2100F0E9FD06003037601E2C
:1009A000077030000A2100F0E1FD0F0030000A213D
:1009B00000F0DCFD0600A41E303727706D1EE3D169
:1009C00008341398083813900028CDDD2E9800F0D5
:1009D000C5FC02000B0030A803C800F03CFD00225B
:1009E000364B00F03FFE30AA03C2C5E7FFFFFFFF12
:1009F000FFFFFF7F2F98201A24A94D1C04E0401E02
:100A00000199491E01916D1C29783029F7D069465A
:100A10008978662902D10199491C06E069468978DE
:100A2000652901D1149900E000210E9A5418A042C2
:100A300000DA441E002C1DD4844204DA285D3428D8
:100A400001DD392100E030212200681E831801E019
:100A5000641E5B1E521E1E788E42F9D0392902D1C7
:100A6000A95C491CA954002A04D50500641C0198FE
:100A7000401C0190019E13956846007869464870B5
:100A800000F0B2FE406A0078694608700E9D20B200
:100A9000002804DC149C0548784410301390684604
:100AA000807866280CD1761C24E000BF845F0000AB
:100AB00097750000A08601000000F03F84D79741A1
:100AC00068468078672846D130B20321C9438842FE
:100AD00047DBA84245DA761C02A8008F1299C0B203
:100AE000084203D120B2A84200DC050030B22D1A22
:100AF00000D5002537B2002F00DDBAE00898411C70
:100B000008913021059A1154002D05DC02A8008FB0
:100B10001299C0B2084206D00898411C0891694653
:100B20000978059A11547842854200DA6E4236B24D
:100B300070420B90AD1920B2854200DA2C0024B22D
:100B40000994220013990598089BC01800F050FBE7
:100B5000281B0C90DAE068464078612818D1702094
:100B60001BE020B2A84206DA02A9098F129AC9B284
:100B7000114200D105006D1E00D500256846407861
:100B8000672802D16520694607E04520694604E0F0
:100B900068464078412801D1502048700898411C8F
:100BA000089113990978059A11541398411C002D46
:100BB00005DC02A8008F129AC0B2104219D0089822
:100BC000421C08926A461278059B1A54002D10DDCB
:100BD000641E20B2854200DA2C0022B20598089BE0
:100BE000C01800F005FB24B2089800190890281BD3
:100BF0000B9005980899401869464978017031B200
:100C0000002903D42B214170871C03E02D22427060
:100C1000871C4E42002412AD300008E00A2100F08B
:100C200091FC30AA03C229703098641C6D1C00B27C
:100C30000028F3DC012C08DC6846407820210143C1
:100C4000652902D1302038707F1C002C09D130205A
:100C500038707F1C07E0641E12A8005D30303870C9
:100C60007F1C002CF7DC059808994018381A099069
:100C70004CE020B231B288421DDA22B213990598B5
:100C8000089BC01800F0B4FA24B208980019089024
:100C9000391B0B91002D05DC02A9098F129AC9B2EC
:100CA000114206D069460978059A11540998401CEA
:100CB00009900C952AE032B213990598089BC01848
:100CC00000F096FA0898C0190890A41B002D05DCC6
:100CD00002A9098F129AC9B2114205D0411C08918C
:100CE00069460978059A115420B2854200DA2C0031
:100CF00022B21398C1190598089BC01800F078FA21
:100D000024B2089800190890281B0B9002A83821DB
:100D1000405C14210140102900D0C2E007980899D6
:100D200040180B994018099940180C9940180F99D0
:100D3000884200DBB5E0081A0A90B2E002AA3A2025
:100D4000105C622808D068280ED06A2814D06C285D
:100D50001DD0712810D01AE0349801680868091D68
:100D6000349B1960C0B218E0349801680868091D06
:100D7000349B196080B210E034980368DB1D0720B3
:100D800083433498036003CB349C236006E034989B
:100D900001680868091D349B1960002102AB03C378
:100DA000108F1299C0B208425BD002A803C8002974
:100DB00001D1002855D068460078202101437829C8
:100DC0004FD1079815A930220A54401C421C0792A3
:100DD0006A4612780A5444E002AA3A20105C62285B
:100DE00008D068280ED06A2814D06C281DD071282D
:100DF00010D01AE0349801680868091D349B196006
:100E000040B218E0349801680868091D349B1960E5
:100E100000B210E034980368DB1D07208343349848
:100E2000036003CB349D2B6006E0349801680868AA
:100E3000091D349B1960C11702AB03C3002902DAF4
:100E400007982D2109E0108F204202D007982B210E
:100E500003E0C00705D50798202115AA1154401CAE
:100E6000079015A80799401805906846017802A8D0
:100E700000F03CF815E01498079034980068016879
:100E8000001D349A106015A801700AE0252015A9EC
:100E900008701498079068460078002801D04A70BE
:100EA00007940F980799401A0A99401A0899401A0E
:100EB0000B99401A0999401A0C99401A019002A8FE
:100EC0003821405C400701D5FFF733FA20206946FE
:100ED00008700198002801DCFFF72BFA019C329D75
:100EE000FFF71AFA0020C04335B0F0BDF2B586B066
:100EF000040025696F2901D1082707E00846202151
:100F00000143782901D00A2700E010273C2603CCB2
:100F1000083C04AA03C26A46127E642A03D06A46C9
:100F2000127E692A09D1002907DA04A803C8002221
:100F30000023121A8B4104A80CC004A803C800297E
:100F40000DD100280BD1206B002808D1082F3DD1EE
:100F50003820205C000739D53B26302035E002944C
:100F6000009504A830C8761E0196200029003A009A
:100F7000FB1700F03FFC3032D0B23A280DDA00986F
:100F80008255200029003A00FB1700F033FC0400D2
:100F90000D0007D1002C05D10AE06846007E8218BA
:100FA000AF32ECE70298C068009989198842DAD319
:100FB000029C009D082F09D13820205C000705D530
:100FC000A85D302802D0761E3020A8553C20801B1A
:100FD000A061A919E160216B884206DA081A206233
:100FE000208F1C490140218710E000290ED53821AF
:100FF000615C14220A40102A08D1616B6269891A67
:10100000226A891A081A002800DD206207B0F0BDA4
:10101000F8B50026104F04000D00009214E0C00740
:1010200007D532003B002000290000F01BFB040024
:101030000D000098401000903000390032003B0055
:1010400000F010FB06000F0000980028E7D12000F8
:101050002900F4BDEFFF00000000244010B503009C
:101060000C001100A0689847A060002804D0E06A36
:10107000401CE062002010BD0020C04310BDF8B548
:101080000024002B11D007000E0014001D00217851
:10109000B068B847B060002809D0F06A401CF06220
:1010A0000020641C6D1EF2D104002000F2BD00205F
:1010B000C043F9E7C9B202788A4203D0401C002A33
:1010C000F9D100207047F1B401684218416848081E
:1010D000131800988068C9071ED5494640181BE0C0
:1010E0001778521C0770401C761EF9D1002C13D0C3
:1010F0001678521C89080D40032D01D11578521C19
:10110000290271184D424119A41C05D00D78491CC3
:101110000570401C641EF9D19A420FD01178521C00
:10112000032503260E4002D11678F61C521C0C092A
:101130000F2CD9D114780F34521CD5E700980C30FD
:10114000F2BC704780B5002801D100BF07A0064956
:101150000B68002B03D022220021984701E000F009
:1011600087FB222002BD0000A00C0020636F6E737D
:10117000747261696E742068616E646C65723A2085
:10118000626164206D65737361676500431C01785B
:10119000401C0942FBD1C01A70470268531C03600F
:1011A00011707047C9B2521E05D30378401C8B42A0
:1011B000F9D1401E7047002070472E0070B4103ADD
:1011C00003D378C9103A78C0FBD2530701D318C9AA
:1011D00018C001D508C908C0D20704D30B88038002
:1011E000891C801C002A01D50B78037070BC7047E5
:1011F0008B0701D18307E1D0124205D00B78491C3F
:101200000370401C521EF9D1704710B5144600F00F
:1012100002F8226010BD4A0053155B1C08D0520D25
:1012200006D003231B02FE3AD21A1305C91A7047CF
:101230000022704730B4012464054D00EC420BD805
:101240005D00EC4208D80C001C43640004431443C6
:1012500004D2994200D1904230BC7047FCD08B42FE
:10126000FAD18242F8E730B4012464054D00EC4223
:101270000BD85D00EC4208D80C001C43640004430A
:10128000144304D28B4200D1824230BC7047FCD060
:101290009942FAD19042F8E7124217D40023DB4377
:1012A0005B0D9C464B005B0D06D0634504D09B183C
:1012B000634502D21205891870476246090D114331
:1012C0000905002000B500BF00BF00BD52424B0021
:1012D0005B0DF1D05B1C5B05EED25B0D934102D937
:1012E0001205891A70470BD10B031B13C90FC907CD
:1012F000821C002043411343E4D912051143E1E766
:10130000C90FC9070020DDE7F4464A1805D200F0EE
:101310000FF801D580174008604700F009F8012157
:10132000C907884200D90800404260474A1812D2D3
:10133000400DC90208430121C9070843520D40214D
:101340000901521A521C06D452421F3201D4D04015
:101350007047C017704700207047FEE70100422227
:101360001201D21E004207D002D4521E0018FCD532
:10137000C10A400512058918704700000100EED52A
:101380004042F446FFF7EBFF0122D20711436047CA
:10139000F0B40125ED070F005F404FD48B4200D120
:1013A000824205D98446100062468C461900634685
:1013B000DF184C18640D7F0D3AD0661C760537D0C7
:1013C000E61B352E34DCDB022B43DB0A0C0DC90295
:1013D0002943C912202E0DDB1700203E06D01F0026
:1013E000F741F3405F400026012A7741C018714160
:1013F0000DD217E01700F741F2405740F3415A4031
:10140000B340F3405A400026801859410AD3A21C29
:1014100052050FD0C207012F724117004008CB07B9
:1014200018434908641C24054208AF4170416141DA
:10143000F0BC7047641C21050020F9E76B4010E008
:101440006B40ABE7F742F3D1E943F1E72442EFD138
:1014500000200021ECE7F0B40125ED070F005F400C
:10146000EED40C00871A9C4105D2C01BA141D219B1
:10147000634169406B40AE0ADF184C18F442E1D278
:10148000640D7F0DE2D0E61B362ED1DCDB022B4350
:10149000DB0AA4460C0DC9022943C90A012E28DC27
:1014A00004D1D6075208DF073A435B08EF0A7642B9
:1014B0009041994114D039423BD1B619404149413C
:1014C000761C394204D1761C001849413942FAD0C1
:1014D000B9436746B74208D9A41B24052143A7E7AF
:1014E0000042EAD13642E8D1A2E7E40AE10700204F
:1014F0009EE7202E0BDD203E1F00F340F7415F40AA
:10150000012A002257417E42984191410BE0170089
:10151000F741F2405740F3415A40B340F3405A403C
:101520007E42904199410A0303D2641EB61940419C
:1015300049410027641E24054208AE4178416141BB
:10154000F0BC7047CA0F00D0494203105A400DD07A
:1015500004B500D3404200F009F8009AD20701D345
:101560004942124200D5404204BD0000094214D055
:1015700088420FD30122030C01D10004120400237E
:1015800000185B418B4200D35B1A5241F8D319001B
:101590001000704701000020704708B500F06EF998
:1015A00008BDF0B40E005E400125ED072E40B446A4
:1015B000AE0ADF184C18F4423BD2F74241D2640D18
:1015C00043D07F0D38D0E41BC902DB0229432B43F3
:1015D000CF0ADB0A0600B61A9F4104D2641EB61970
:1015E0007F41B6185F416812800D241800188442AC
:1015F00022DCE80C0021B6197F41B61A9F4102D2C5
:10160000B6185F413F1C40414941F4D3241C21DD01
:101610002405B6197F41B61A9F4105D33743C60743
:1016200037430026012F7041614166463143F0BCCB
:101630007047FCD1F74205D20020C1434905490853
:10164000F3E704D00020C143F1E77F0DFAD000207A
:101650006146ECE72442FAD1401C61410F03F6D306
:101660000020E2E7F0B50E005E400125ED072E40B8
:10167000B446AE0ADF184C18F44208D2F7420ED234
:10168000640D01D07F0D12D100206146F0BD05D15F
:10169000F74201D87F0D05D10020C143F0BDFBD139
:1016A000640DF9D00020C143490549088FE0E419D1
:1016B000C902DB0229432B43DB0A460DC00231433A
:1016C0008E4630B487B295B27D432E0CADB2140C69
:1016D0007C43A419260C240425439CB27C43A41902
:1016E000190C7943270CC919A4B20F043C43090C07
:1016F000000C97B247432E0CBE193543ADB2170C00
:101700004743360CBF19A6B2BF193E043543240C1B
:101710003E0C36199FB24743BF19BCB23E0C891923
:101720001F0C47437F183E043443390C704680B287
:1017300097B247432E0CBE193543ADB2170C474341
:10174000360CBF19A6B2BF193E043543240C3E0C1B
:1017500036199FB24743BF19BCB23E0C89191F0C02
:1017600047437F183E043443390C77463F0C90B210
:1017700078432E0C80190604ADB22E43050CA0B29E
:101780002D18120C7A435019020C80B2240CA418A4
:101790009AB27A43121914042043120C89181B0CB4
:1017A0007B43C91830BCEF0A394203D1B619404116
:1017B0004941641E6F12BF0DE41B0BDBFF19BC42D5
:1017C00011DA240500274208AE417841614166469E
:1017D0003143F0BD641C05D1401C6141CF0201D3EF
:1017E0004908F4E750E75DE7014870470000000052
:1017F0008407002012422DD0994231D970B50025BE
:101800001B4209D00C00002112E01100FFF7AEFED0
:101810000A000021002370BD0942F6D000240126F1
:1018200049186441944200D3A41A7641F8D3310098
:10183000012601E0764109D2001864416D41A41AE5
:101840009D41F7D2A4185D41B619F5D330002200AE
:101850002B0070BD1B42CFD108B500F011F808BDB8
:1018600001D19042CAD202000B0000210020704733
:1018700080B5012000F006F801BDFEE77047FEE7E5
:101880007047FEE780B500BF00BF024A1100182074
:10189000ABBEFBE7260002000000000000000000D5
:1018A0000000000000000000000000000000000038
:1018B0000000000000000000000000000000000C1C
:1018C000000C000C000C000C000C000C000C000CB8
:1018D000000C000C0000000C000C000000000000D8
:1018E0000000001B001B001B001B001B0000000071
:1018F00000000000000000000000000000000000E8
:101900000000000000008019801980198019C07F34
:10191000C07F80190033C07FC07F003300330033A5
:1019200000330000000000000000001E003F807532
:1019300080650074003C001E00078005806580659E
:101940008075003F001E00040004000000000070CD
:1019500000D840D8C0D880D900730006000C801B86
:10196000C036C066C046C00680030000000000000C
:101970000000001E003F003300330033001E000C47
:10198000C03CC066806380618063C03E801C0000F4
:10199000000000000000000C000C000C000C000C0B
:1019A0000000000000000000000000000000000037
:1019B000000000000000000080000001000300069D
:1019C00000060004000C000C000C000C000C000CC5
:1019D0000004000600060003000180000020001043
:1019E0000018000C000C00040006000600060006AB
:1019F000000600060004000C000C00180010002077
:101A00000000000C002D003F001E0033000000000D
:101A100000000000000000000000000000000000C6
:101A200000000000000000000000000C000C000C92
:101A3000000CC0FFC0FF000C000C000C000C0000EC
:101A40000000000000000000000000000000000096
:101A50000000000000000000000000000000000086
:101A60000000000C000C000400040008000000004E
:101A70000000000000000000000000000000001E48
:101A8000001E000000000000000000000000000038
:101A90000000000000000000000000000000000046
:101AA00000000000000000000000000C000C00001E
:101AB0000000000000000003000300030006000611
:101AC00000060006000C000C000C000C00180018AA
:101AD00000180000000000000000001E003F00335E
:101AE000806180618061806D806D806180618061D6
:101AF0000033003F001E0000000000000000000650
:101B0000000E001E00360026000600060006000635
:101B100000060006000600060006000000000000A7
:101B20000000001E003F807380618061800100031F
:101B30000006000C001800300060807F807F0000ED
:101B4000000000000000001C003E00630063000372
:101B5000000E000E00038001800180618073003F51
:101B6000001E00000000000000000006000E000E35
:101B7000001E001E0016003600360066807F807F43
:101B80000006000600060000000000000000007FC4
:101B9000007F006000600060006E007F8063800155
:101BA000800180618073003F001E00000000000083
:101BB0000000001E003F803380610060006E007FE7
:101BC00080738061806180618033003F001E00006F
:101BD000000000000000807F807F80010003000380
:101BE00000060006000C000C000C0008001800188D
:101BF00000180000000000000000001E003F80638D
:101C0000806180610021001E003F806180618061F1
:101C10008061003F001E0000000000000000001E68
:101C2000003F00738061806180618073803F801D10
:101C3000800180610073003F001E00000000000072
:101C400000000000000000000000000C000C00007C
:101C500000000000000000000000000C000C00006C
:101C60000000000000000000000000000000000074
:101C7000000C000C00000000000000000000000C40
:101C8000000C000400040008000000000000000038
:101C900080008003000E003800600038000E8003D2
:101CA00080000000000000000000000000000000B4
:101CB000000000000000807F807F00000000807F27
:101CC000807F000000000000000000000000000015
:101CD000000000000000000000400070001C000731
:101CE00080010007001C00700040000000000000A0
:101CF000000000000000001F803FC071C060C000F5
:101D0000C00180030007000E000C000C0000000C56
:101D1000000C0000000000000000001E003F8031A9
:101D200080718063806F806D806D806F80670060E0
:101D30000032003E001C0000000000000000000E09
:101D4000000E001B001B001B001B80318031803FF8
:101D5000803F8031C060C060C060000000000000B3
:101D60000000007C007E0063006300630063007E6F
:101D7000007E0063806180618063007F007E0000E0
:101D8000000000000000001E003F80318061006004
:101D90000060006000600060006080618031003F92
:101DA000001E0000000000000000007C007F0063B7
:101DB0008063806180618061806180618061006397
:101DC0000063007E007C0000000000000000807FB7
:101DD000807F0060006000600060007F007F006026
:101DE000006000600060807F807F000000000000D5
:101DF0000000807F807F0060006000600060007FE6
:101E0000007F006000600060006000600060000013
:101E1000000000000000001E003F80318061006073
:101E20000060006080638063806180618031803FFA
:101E3000001E0000000000000000806180618061E1
:101E4000806180618061807F807F8061806180614E
:101E50008061806180610000000000000000003FA0
:101E6000003F000C000C000C000C000C000C000CDF
:101E7000000C000C000C003F003F000000000000C0
:101E800000008001800180018001800180018001CB
:101E900080018001806180618073003F001E00002E
:101EA000000000000000C060806100630066006602
:101EB000006C0078007C00660066006380618061D1
:101EC000C0600000000000000000006000600060D2
:101ED0000060006000600060006000600060006002
:101EE0000060807F807F0000000000000000C07163
:101EF000C071C07BC07AC06AC06AC06EC064C06076
:101F0000C060C060C060C060C06000000000000031
:101F1000000080718071807980798079806D806D1A
:101F2000806D806580678067806780638063000064
:101F3000000000000000001E003F0033806180614F
:101F40008061806180618061806180610033003FD9
:101F5000001E0000000000000000007E007F806383
:101F60008061806180618063007F007E006000602E
:101F70000060006000600000000000000000001E23
:101F8000003F003380618061806180618061806199
:101F9000806580670033803F401E00000000000025
:101FA0000000007E007F8063806180618063007F2D
:101FB000007E00660063006380618061C060000095
:101FC000000000000000000E001F80318031003052
:101FD0000038001E00078003806180618031003F6F
:101FE000001E0000000000000000C0FFC0FF000C49
:101FF000000C000C000C000C000C000C000C000C81
:10200000000C000C000C00000000000000008061CB
:1020100080618061806180618061806180618061B8
:10202000806180618073003F001E0000000000009E
:102030000000C060C060C060803180318031001B12
:10204000001B001B001B000E000E000E0004000011
:10205000000000000000C0C0C0C0C0C0C0C0C0C000
:10206000C0CC804C804C805E8052805280738061F6
:1020700080610000000000000000C0C0806080613E
:102080000033003B001E000C000C001E001F003B34
:1020900080718061C0C00000000000000000C0C06E
:1020A0008061806100330033001E001E000C000CB4
:1020B000000C000C000C000C000C000000000000E4
:1020C0000000803F803F8001000300030006000CF9
:1020D000000C0018001800300060807F807F000036
:1020E00000000000000F000F000C000C000C000CA2
:1020F000000C000C000C000C000C000C000C000C80
:10210000000C000C000F000F000000180018001851
:10211000000C000C000C000C000600060006000677
:10212000000300030003000000000000001E001E6A
:10213000000600060006000600060006000600066F
:10214000000600060006000600060006001E001E2F
:102150000000000C000C001E0012003300338061F0
:10216000806100000000000000000000000000008E
:10217000000000000000000000000000000000005F
:10218000000000000000000000000000000000004F
:1021900000000000E0FF0000000000380018000C04
:1021A000000000000000000000000000000000002F
:1021B000000000000000000000000000000000001F
:1021C000000000000000001F803F80618001801F30
:1021D000803F80618063807FC03800000000000085
:1021E00000000060006000600060006E007F80738F
:1021F00080618061806180618073007F006E00007B
:102200000000000000000000000000000000001EB0
:10221000003F807380610060006080618073003FD8
:10222000001E00000000000000008001800180010D
:102230008001801D803F807380618061806180614A
:102240008073803F801D000000000000000000003F
:10225000000000000000001E003F00738061807FCE
:10226000807F00608071003F001E000000000000C1
:102270000000C007C00F000C000C807F807F000CA6
:10228000000C000C000C000C000C000C000C0000FA
:10229000000000000000000000000000801D803FE2
:1022A000807380618061806180618073803F801D68
:1022B00080018063007F003E0000006000600060DD
:1022C0000060006F807F80718061806180618061CB
:1022D0008061806180610000000000000000000655
:1022E000000600000000003E003E0006000600065A
:1022F00000060006000600060006000000000000C0
:102300000006000600000000003E003E0006000639
:10231000000600060006000600060006000600464D
:10232000007E003C00000060006000600060806192
:1023300000630066006C007C0076006300638061CF
:10234000C0600000000000000000003E003E0006EB
:10235000000600060006000600060006000600064D
:10236000000600060006000000000000000000005B
:1023700000000000000080DDC0FFC0CEC0CCC0CC9B
:10238000C0CCC0CCC0CCC0CCC0CC00000000000091
:1023900000000000000000000000006F807F8071DE
:1023A0008061806180618061806180618061000006
:1023B0000000000000000000000000000000001EFF
:1023C000003F807380618061806180618073003F25
:1023D000001E0000000000000000000000000000DF
:1023E000006E007F80738061806180618061807396
:1023F000007F006E00600060006000600000000070
:1024000000000000801D803F8073806180618061DA
:1024100080618073803F801D800180018001800188
:10242000000000000000000000000067803F00394D
:10243000003000300030003000300030003000004C
:102440000000000000000000000000000000001E6E
:10245000803F80610060007F803F80018061007F5D
:10246000001E00000000000000000000000800182E
:102470000018007F007F00180018001800180018CE
:102480000018801F800F0000000000000000000006
:1024900000000000000080618061806180618061D7
:1024A000806180618063807F803D000000000000CB
:1024B00000000000000000000000C060803180319A
:1024C0008031001B001B001B000E000E00060000E8
:1024D000000000000000000000000000000080DD9F
:1024E00080DD80DD00550055005500770077002223
:1024F00000220000000000000000000000000000BA
:102500000000806100330033001E000C000C001E30
:102510000033003380610000000000000000000074
:102520000000000080618061803100330033001BB7
:10253000001B001B000E000E000E001C007C007033
:1025400000000000000000000000C07FC07F80018C
:1025500000030006000C00180030C07FC07F0000A0
:102560000000000080038007000600060006000649
:102570000006000E001C001C000E000600060006EF
:10258000000600068007800300060006000600061D
:10259000000600060006000600060006000600060B
:1025A0000006000600060006000600060038003C93
:1025B000000C000C000C000C000C000E00070007C3
:1025C000000E000C000C000C000C000C003C00384D
:1025D0000000000000000000000000000000803843
:1025E000807F0047000000000000000000000000A5
:1025F0000000000010B5040001D1012010BD3D20F5
:10260000205C002804D13C216054200000F0F8FC3C
:1026100042E03D21415C012901D0012070470221A7
:102620003D22815402680121D3680B43D3600268C4
:102630002B4B9A4205D02B4B9A4202D02A4B9A42FE
:1026400008D19368294A1A40062A07D00B049A42F7
:1026500004D00268126811430068016000207047CE
:1026600010B502680121C943D3680B40D3600268EA
:10267000136A084C1C4008D1126A184B134004D14D
:102680000268126811400268116001213D228154E4
:10269000002010BD1111000002203D216054211DB9
:1026A000206800F069FA0120482160543E216054FE
:1026B0003F216054402160544121605442216054C4
:1026C00043216054442160544521605446216054A4
:1026D000472160543D216054002010BD4404000097
:1026E000002C0140000400400040014007000100B0
:1026F00010B5040001D1012010BD3D20205C002850
:1027000004D13C216054200000F05BFCC4E738B5E4
:102710000400002901D13E2010E0042901D13F200E
:102720000CE0082901D1402008E00C2901D141200A
:1027300004E0102901D1422000E04320205C012860
:1027400001D0012032BD0220002901D13E2210E03B
:10275000042901D13F220CE0082901D1402208E0E0
:102760000C2901D1412204E0102901D1422200E0CC
:102770004322A0540122206800F08CFB22681448F8
:1027800014498A4207D0824205D0134B9A4202D0A4
:10279000124B9A4204D1536C80252D021D4355647F
:1027A000236801228B4204D00D498B4201D0834221
:1027B00007D199680E480840062807D011048842BE
:1027C00004D018460068024318460260002032BD5B
:1027D00000400140002C01400044014000480140FD
:1027E0000004004070B504000D0000222BE0000042
:1027F0000700010004000D0006D0042D0BD0082DA9
:1028000010D00C2D15D01CE02068C168324A0A4057
:10281000C260606A13E02068C168304A0A40C26042
:10282000A06A0CE02068C1682D4A0A40C260E06AD4
:1028300005E02068C1682B4A0A40C260206B00F0A6
:1028400079FC00222900206800F024FB2268264839
:1028500026491F4B9A4208D01C4B9A4205D01D4B6B
:102860009A4202D0224B9A4209D1136A0B4006D1F8
:10287000136A034003D1536C1E4E1E4056642268F7
:10288000136A194008D1116A084005D11046006842
:1028900001218843114608600120002D01D13E210D
:1028A00010E0042D01D13F210CE0082D01D1402181
:1028B00008E00C2D01D1412104E0102D01D142216D
:1028C00000E043216054002070BD00000040014042
:1028D000002C014000440140FFFDFFFFFFFBFFFF14
:1028E000FFF7FFFFFFEFFFFF44040000111100009E
:1028F00000480140FF7FFFFFF8B504002068002575
:1029000002260169314015D0C168314012D0022140
:10291000C9430161012121778069800703D020002C
:1029200000F04AFC05E0200000F047FC200000F029
:1029300045FC2577206804270169394016D0C16815
:10294000394013D00421C943016126778069C02131
:102950008900014003D0200000F02EFC05E020009B
:1029600000F02BFC200000F029FC257720680826C9
:102970000169314014D0C168314011D00821C943E8
:1029800001612777C069800703D0200000F014FCA4
:1029900005E0200000F011FC200000F00FFC25777E
:1029A0002068102102690A4016D0C268114013D075
:1029B0001021C94301612677C069C0218900014007
:1029C00003D0200000F0F8FB05E0200000F0F5FB4C
:1029D000200000F0F3FB25772068012102690A40FE
:1029E00008D0C268114005D00121C943016120000F
:1029F00000F0E5FB206880250169294008D0C16806
:102A0000294005D08021C9430161200000F0D8FB96
:102A100020680169C90507D5C1680D4004D0544933
:102A20000161200000F0CDFB2068402102690A40CE
:102A300008D0C268114005D04021C943016120007F
:102A400000F0C0FB2068202102690A4008D0C2685B
:102A5000114005D02021C9430161200000F0B3FBE3
:102A6000F1BD0000F1B53C23C05C012801D102207A
:102A7000F2BD0120009B3C24185508273D4EC5029D
:102A80000C00002A0AD0042A18D0082A28D00C2AC0
:102A900036D0102A46D0142A54D064E0009800683A
:102AA00000F0A2F80098006881690F43876181698E
:102AB000042291438161816922690EE000980068D7
:102AC00000F0CCF80098006881690D438561816948
:102AD0000E4086618169226912020A43826142E0E6
:102AE0000098006800F0EEF800980068C1690F4394
:102AF000C761C16904229143C161C16922690EE0C5
:102B00000098006800F010F900980068C1690D4352
:102B1000C561C1690E40C661C169226912020A43DA
:102B2000C26120E00098006800F034F90098006865
:102B3000416D0F434765416D042291434165416DED
:102B400022690EE00098006800F050F900980068D3
:102B5000416D0D434565416D0E404665416D2269ED
:102B600012020A434265002000993C228854F2BDBB
:102B7000FFFEFFFFFFFBFFFFF0B506687F4A804BBB
:102B8000804C814DA84201D0A04206D17027BE439F
:102B900037004E683E43A8420BD0A04209D07B4C80
:102BA000A04206D0984204D0904202D08D4CA04260
:102BB00003D1774C3440CE6826438024A6434C6929
:102BC000344304608C68C4620C688462A84206D0F6
:102BD000984204D0904202D0824A904201D10969C1
:102BE000016301214161F0BDF8B5026A01239A43F6
:102BF0000262036A426884697B4D25400C682C435D
:102C000000940224A3438C681C435C4B5C4D5E4ED5
:102C1000B04206D0A84204D0984202D0714FB842C8
:102C20000CD10827BC432700CC683C430427BC4395
:102C3000B04206D0A84204D0984202D0694B9842D4
:102C400005D1534B13404D691D438A692A434260A5
:102C5000009A8261496841630462F1BD70B5026AFD
:102C600010239A430262026A43688469744D2540C6
:102C70000C6824022C432025AA438D682D0115439E
:102C8000414A904208D1802295432E00CA6815011E
:102C900035434022954308E0394A904205D0374AEF
:102CA000904202D04F4A904206D16B4A1A404B697B
:102CB0008E691E43B3001343436084614968816396
:102CC000056270BD70B5026A5E4B13400362046A10
:102CD0004268C369444D1D400B682B435A4D254043
:102CE0008C6824022C43284DA84207D1574D25401B
:102CF000CC6826022E43564C344008E0204DA842B2
:102D000005D01E4DA84202D0364DA84206D1534DE3
:102D100015404A698E69164332012A434260C361F5
:102D20004968C163046270BD30B5026A494B134003
:102D30000362036A4268C469414D25400C6824025D
:102D40002C43474D1D408B681B032B430E4DA8425F
:102D500008D00B4DA84205D0084DA84202D0214D05
:102D6000A84204D13F4D15404A6992012A4342606E
:102D7000C46149680164036230BD00000044014041
:102D80000040014000040040002C014000200040B1
:102D9000FFFCFFFF70B5344A036A13400362046A04
:102DA0004368456D314E2E400D683543304E264008
:102DB0008C68240434432F4EB04208D02E4EB042CB
:102DC00005D02E4EB04202D02D4EB04203D11A4053
:102DD0004B691B0213434360456549688165046282
:102DE00070BD0000004801408CFFFEFF30B5026A54
:102DF000244B13400362036A4268446D224D254010
:102E00000C6824022C43214D1D408B681B052B436D
:102E1000184DA84208D0184DA84205D0174DA84219
:102E200002D0174DA84204D1194D15404A699202AB
:102E30002A43426044654968C165036230BD0000B1
:102E4000FF8CFFFEFFFEFFFFFFFDFFFFFFF7FFFF11
:102E5000FFFBFFFFFFEFFFFFFFF3FFFFFFCFFFFFD2
:102E6000FFDFFFFFFFBFFFFFFFFFFEFF8FFFFEFF44
:102E7000FFFFFDFF002C01400040014000440140E5
:102E800000480140FFFFEFFFFF8FFFFEFFFFDFFF66
:102E9000FFFFFBFF10B5C906C90E036A01248C4071
:102EA000A3430362036A8A401A43026210BDFEE72D
:102EB00080B59648012142680A4342604268114049
:102EC000009100998021490502680A430260006868
:102ED000014000910098C020C00000F087F901BDBA
:102EE00038B586B004001422002101A800F08CF946
:102EF00020688449884234D1834880214903C268CC
:102F00000A43C260C2681140009100990121026821
:102F10000A43026002681140009100990221026890
:102F20000A4302600068014000910098102001905F
:102F3000032402940025039501A9A020C00500F0F8
:102F40006DF9734801900294039501A9714800F04E
:102F500065F9002200210C2000F047FA0C2000F057
:102F600049FA07B030BD10B586B004001422002124
:102F700001A800F049F92068674988421FD1022062
:102F8000614C21680143216021680840009000984D
:102F9000C020800001901220029000200390049035
:102FA0000620059001A95B4800F038F980208003D5
:102FB000A1680143A160A16808400090009806B094
:102FC00010BD81B001685148544A914201D1C10CF1
:102FD0000DE0534A914205D1022102680A43026082
:102FE000006808E04F4A914208D1802149024268B6
:102FF0000A434260406801400091009801B0704768
:1030000080B501684148484A914205D110210268C3
:103010000A430260006807E0444A914208D1D10B9C
:1030200042680A434260406801400091009801BD37
:103030003F4A914210D18021C90242680A4342604E
:10304000406801400091009800220021162000F005
:10305000CCF9162000F0CEF901BD70B586B00400A1
:1030600014220021684600F0CFF825682948012184
:103070000222254C0023294EB54208D1256815436C
:103080002560246814400594059C08240AE0244E19
:10309000B5420CD125681543256024681440059479
:1030A000059C1024009401920293039324E01F4E88
:1030B000B54211D120680843206020680140059185
:1030C00005988020009001920293039304200490BD
:1030D0006946A020C00511E012498D4210D1216837
:1030E0001143216021681140059105995103009118
:1030F00001920293039305210491694600F08EF832
:1031000006B070BD00240140341002403C10024063
:10311000021000000004005000540040002C014048
:10312000000400400040014000100040002000402A
:1031300000480140F8B50021002401262522825CC8
:10314000022A03D00421C16301242EE0026813681F
:103150000E25AB43136002681368B3431360436CDE
:10316000144A1D6815401D60114B1D68AC46402572
:10317000475D1C253D400127AF4065462F431F603A
:10318000C36C856C6B60036D002B06D01B681A4006
:10319000036D1A60826D436D5A6025228654242285
:1031A0008154816B002900D088472000F2BD0000C7
:1031B00004000240FFFEFFFF7047704770477047F2
:1031C000704770477047704710B500240B4801687E
:1031D000820D0A430260032000F032F9002801D07A
:1031E000012401E0FFF764FE200010BD04490A68D5
:1031F000044B134018430860704700000020024051
:1032000000000140FFF9FFFF10B5040008001100A5
:103210000200200000F03CF9200010BDFFB50022A4
:103220000F2302932CE0052602E05B4FB842FAD14F
:10323000AE402643009C2660584C2568DC43254060
:103240004E68F60300D51D43544E35607568254021
:103250004F68BF0300D51D437560514D2E68264051
:103260004D68ED0200D51E434D4D2E606E68344012
:103270004E68B60202D526001C0034436C60521C16
:103280000B681C00D44079D0012595402B40F6D026
:1032900054000327A740FE4301964E68B707BF0FAF
:1032A000012F03D0B607B60F022E0ED18768019EFC
:1032B0003E40CF68A740374387604668AE434D68BD
:1032C000EF06FF0F9740374347600D79AD07AD0F0D
:1032D000032D25D0C568019E2E408D68A54035433D
:1032E000C5600D79AD07AD0F022D19D1D508AD0020
:1032F00045192E6A039697001C263E406F463E7085
:10330000039EB446029F6E463678B7406646BE437B
:10331000B4460F696E463678B740664637432F622B
:1033200007680326019D3D404F683740BC46270093
:103330006446BC402C4304604C68350425409ED054
:10334000184C9508AD0064190094009C2468D700BF
:1033500018253D40029FAF40BC43A027FF05B8425F
:1033600001D1002664E7104FB84201D101265FE782
:103370000E4FB84200D058E7022659E7FFBD00695A
:10338000084000D00120C0B27047002A01D08161FE
:103390007047816270470000000C005080180240A6
:1033A000001802406018024000040050000800505D
:1033B00010B5C20018231340FF249C40E243890744
:1033C000090E9940030004D419489B089B00C018BB
:1033D00006E0184B0007000F083880088000181816
:1033E00003681A401143016010BD80B5FFF7E0FF8C
:1033F00001BD0000010005D40121C006C00E8140BE
:103400000D480160704710B5401E80214904884274
:1034100001D3012010BD094C606003210020C0438E
:10342000FFF7C6FF0020A0600721216010BD00004B
:1034300000E400E01CED00E000E100E010E000E04E
:1034400070B5060000240F4D2978002916D0FA2007
:103450008000FEF78BF801000B480068FEF786F845
:10346000FFF7D1FF002809D1042E07D20022310036
:103470000020C043FFF7B9FFAE6000E00124200048
:1034800070BD00BFB0020020BC020020002200BFBF
:10349000094202D0491E4254FCD1704710B50423A2
:1034A0001940436907248C40A3438A401A43426170
:1034B00010BDC068C02109010140481E8041C00FF5
:1034C0007047FEB505000027002001900090002DF8
:1034D00001D10120FEBD2C0054346068002805D1C4
:1034E0002800FFF7FDFC0020A0602070286881689C
:1034F00080267605314012D18168834A0A403243E2
:103500008260824800688249FEF730F8401C400023
:1035100001E00098401E009000980028F9D1296829
:103520008868064008D16068102202436260A06883
:1035300001220243A260012788686268D20600D493
:10354000400700D5D7E06068724A0240022010436D
:1035500060608A6880200006D20735D4CA681823C4
:103560009A43AB681343CB60C02109066A680A40DE
:10357000EB6C134301933C22AA5C012A09D11A4641
:103580002B6C13436A6C1A43AB6C134301221A432E
:1035900001922A681669604B3340019E1E431661F2
:1035A0006A6800928A420FD01146420891420BD0BD
:1035B000814209D059490B68594A1A40009BF026AC
:1035C000B6031E4016430E60296B002900D0C10CC3
:1035D0002A69104002D05000400801E0802080039A
:1035E0000090A87E2A7E93036A7ED2031A43430387
:1035F00013431943EA680A43009911432C22AA5C39
:1036000056000E432021695C01290ED1002804D107
:10361000300080267602064307E0606820210143DF
:103620006160A06801210143A160686A002805D09B
:10363000E021490001403143AE6A0E432868C16869
:10364000384A0A403243C26028680169364A0A4053
:103650000199114301616A6B00212868FFF71EFF81
:10366000AA6B32492868FFF719FF2869002806D19C
:103670002868816A0F22D2430A43826221E08021B6
:10368000890388421DD10022E16890000B00C340ED
:103690001807000F0F2802D0521C082AF5D30F205C
:1036A000C043012A04D129688A6A1043886208E06D
:1036B0002A68936AEB695B1E5B07DB0E9840014347
:1036C00091620220C0432968C968194A0A40B2427F
:1036D00007D10021A16061680840012101436160B8
:1036E0000EE0616808401021014361600127A06875
:1036F0003843A06004E06068102101436160012745
:103700003800FEBD00000000E8FFFF7FBC02002083
:10371000400D0300FFFEFFFF02FCFF1F08270140D2
:10372000FFFFC3FF1902FEFF02FCFFDF04FFFF07DC
:10373000E7FF3F8370B504002068806804252840B7
:1037400033D15420205C01282FD02600543601208C
:103750003070200000F02AFA0021020023D17268A4
:10376000174B1340AA011A437260B1601C222368F0
:103770001A60317021684A681C239A434A60616963
:10378000082921684A6803D1082313434B6001E0EC
:103790002A434A60216B002904D121684A6810231A
:1037A00013434B6004E0317070BD022070BD000017
:1037B00021688A68564B13401D438D6070BD000020
:1037C000FEF1FFFF0068006C7047F8B50400206848
:1037D00005684768A8070FD5B8070DD5A06DC006C6
:1037E00004D4A06D802109010143A165200000F0EF
:1037F00033FA0220216808600426354201D037429E
:1038000003D1280732D5380730D5A06DC00603D4C0
:10381000A06DF1010143A1652068FFF74AFE002871
:103820001ED0A07E00281BD120680068000717D595
:103830002068816801200E400BD1216849680C2264
:10384000914322685160A16D324A0A401043A0653D
:1038500006E0A16D20220A43A265E16D0843E06500
:10386000200000F0FAF90C202168086028060BD52A
:103870008026374208D0A06D71020143A165200067
:1038800000F0ECF920680660E8050CD5802676008B
:10389000374208D0A06D71020143A165200000F0FD
:1038A000DEF9206806608026B60035420AD037422D
:1038B00008D0A06D71020143A165200000F0D0F98D
:1038C000206806601026354215D0374213D0206B91
:1038D000002803D02068C06880070AD0A06DB1011D
:1038E0000143A165E06D02210143E165200000F084
:1038F000B8F9206806607602354006D0374004D01B
:10390000200000F0AFF920680660F1BD0000000063
:10391000E8FFFF7FFFFEFFFFF1B585B000206A469C
:103920005070019005985422805C012801D102203A
:1039300021E105985430029001250570059806682C
:10394000B068400700D509E101910598006903902E
:103950000198406804908949894A8A4880231B0657
:10396000049C022C039C00D1CEE09C4201D08442F6
:1039700007D101980068B46A4003400B2043B0624D
:1039800080E0019800680F24470302D14000C50E73
:1039900047E0284244D1870743D40425284201D078
:1039A00002253EE0070701D503253AE0C70638D4D3
:1039B000850601D5052534E0450601D5062530E00C
:1039C000050601D507252CE0C50501D5082528E009
:1039D000850501D5092524E0450501D50A2520E006
:1039E000050501D50B251CE0C50401D50C2518E003
:1039F000850401D50D2514E0450401D50E2510E000
:103A0000050401D50F250CE0C50301D5102508E0FC
:103A1000850301D5112504E0400301D5122500E0FE
:103A200000250498C006C00E6F4638700298C7681B
:103A3000BC46684607780F20B8406746874368460B
:103A4000007885403D430298C56001984068059D17
:103A5000ED6987087F1CBD4214D3019D2D68C00607
:103A6000C00E6F463870B76ABC46684607780F20AC
:103A7000B84067468743A80E0440684600788440F3
:103A80003C43B46201988068019C2568059C2468C9
:103A90002D026669AE4328403B4D054035436561C4
:103AA00001980468234061D01368C8431840374B1D
:103AB0009C4217D180231B04184257D1146821401F
:103AC000084303431360324800683249FDF74EFD56
:103AD000401C0C21484301900198002846D00198D1
:103AE000401EF8E72C4B9C4202D180235B0404E08B
:103AF0002A4B9C423AD18023DB03184236D114680A
:103B000021400843034327E09C4201D0844206D170
:103B100001980068B46A4003400B8443B462019882
:103B20000468234022D01368C8431840174B9C42B6
:103B300003D1136819401A4B0CE0174B9C4203D178
:103B400013681940174B05E0144B9C420ED11368C3
:103B50001940154B03400B43136007E0029840687F
:103B60002021014302984160684645700020029977
:103B700008706846407806B0F0BD0000FFFF3FFEC9
:103B8000082701400400008000FFFF07001000B07C
:103B9000BC020020400D0300004000B8002000B42B
:103BA000FFFF7FFFFFFFFFFEFFFFBFFFF8B5050030
:103BB0000020009028688168012421403FD110270F
:103BC0008168214A0A4032D181681E4A0A40224354
:103BD00082601E48006800020CD51D4800681D491F
:103BE000FDF7C4FC401C01E00098401E00900098C6
:103BF0000028F9D1687E012821D000F035F80600B0
:103C00002868006820401AD128688068204005D1C3
:103C1000286881680B4A0A402243826000F024F839
:103C2000801B0328ECD3286800682040E8D1A86DE9
:103C30000743AF65E86D0443EC650120F2BD002049
:103C4000F2BD0000E8FFFF7F170000800827014059
:103C5000BC020020400D030070477047704770475A
:103C6000704770477047FEE701484068704700BFE3
:103C7000B002002000000000000000000000000072
:103C800000000000000000000010001000100010F4
:103C900000100010000000100000000000280028A4
:103CA00000280000000000000000000000000000EC
:103CB00000240024007C00240048007C00480048C8
:103CC0000000000000380054005000380014005478
:103CD000005400380010000000200054005800304C
:103CE0000028005400140008000000000010002804
:103CF0000028001000340048004800340000000094
:103D00000010001000100000000000000000000083
:103D1000000000000008001000200020002000200B
:103D200000200020001000080020001000080008FB
:103D300000080008000800080010002000100038EB
:103D4000001000280000000000000000000000003B
:103D50000000000000100010007C001000100000A7
:103D60000000000000000000000000000000000053
:103D70000000001000100010000000000000000013
:103D800000000038000000000000000000000000FB
:103D90000000000000000000000000100000000013
:103DA0000008000800100010001000100020002083
:103DB0000000000000380044004400540044004467
:103DC00000440038000000000010003000500010D7
:103DD0000010001000100010000000000038004427
:103DE00000440004000800100020007C00000000D7
:103DF00000380044000400180004000400440038A7
:103E00000000000000080018002800280048007C7E
:103E10000008000800000000007C0040004000781E
:103E20000004000400440038000000000038004492
:103E300000400078004400440044003800000000C6
:103E4000007C00040008001000100020002000206A
:103E500000000000003800440044003800440044E2
:103E600000440038000000000038004400440044D2
:103E7000003C000400440038000000000000000086
:103E80000010000000000000000000100000000012
:103E90000000000000000010000000000000001002
:103EA0000010001000000000000C00300040003046
:103EB000000C000000000000000000000000007C7A
:103EC0000000007C00000000000000000000000076
:103ED00000600018000400180060000000000000EE
:103EE000003800440004000800100010000000101A
:103EF0000000000000380044004C0054005C00400A
:103F000000400038000000000010002800280028B1
:103F10000028007C004400440000000000780044B9
:103F20000044007800440044004400780000000091
:103F30000038004400400040004000400044003889
:103F400000000000007000480044004400440044A9
:103F50000048007000000000007C00400040007C31
:103F6000004000400040007C00000000007C004059
:103F70000040007800400040004000400000000089
:103F80000038004400400040005C00440044003819
:103F900000000000004400440044007C0044004451
:103FA0000044004400000000003800100010001021
:103FB0000010001000100038000000000004000491
:103FC0000004000400040004004400380000000065
:103FD0000044004800500060005000480048004481
:103FE0000000000000400040004000400040004051
:103FF0000040007C000000000044006C006C005495
:1040000000440044004400440000000000440064F8
:10401000006400540054004C004C004400000000B8
:104020000038004400440044004400440044003888
:104030000000000000780044004400440078004084
:1040400000400040000000000038004400440044EC
:10405000004400440054003800040000007800448C
:10406000004400440078004800480044000000007C
:1040700000380044004000300008000400440038CC
:1040800000000000007C0010001000100010001064
:1040900000100010000000000044004400440044F0
:1040A0000044004400440038000000000044004484
:1040B0000044002800280028001000100000000024
:1040C00000440044005400540054006C00280028B0
:1040D0000000000000440028002800100010002804
:1040E000002800440000000000440044002800288C
:1040F000001000100010001000000000007C000400
:1041000000080010001000200040007C00000000AB
:104110000018001000100010001000100010001017
:1041200000100018002000200010001000100010E7
:10413000000800080000000000300010001000100F
:1041400000100010001000100010003000100028B7
:1041500000280044000000000000000000000000F3
:10416000000000000000000000000000000000004F
:10417000000000FE00200010000000000000000011
:1041800000000000000000000000000000380044B3
:10419000003C0044004C003400000000004000409F
:1041A000005800640044004400640058000000000F
:1041B0000000000000380044004000400044003887
:1041C00000000000000400040034004C00440044DF
:1041D000004C0034000000000000000000380044E3
:1041E000007C00400044003800000000000C00107B
:1041F000007C0010001000100010001000000000F3
:10420000000000000034004C00440044004C003426
:10421000000400780040004000580064004400445E
:104220000044004400000000001000000070001076
:10423000001000100010001000000000001000002E
:10424000007000100010001000100010001000E0BE
:10425000004000400048005000600050004800440A
:10426000000000000070001000100010001000108E
:104270000010001000000000000000000078005452
:1042800000540054005400540000000000000000DE
:104290000058006400440044004400440000000052
:1042A000000000000038004400440044004400388E
:1042B00000000000000000000058006400440044BA
:1042C0000064005800400040000000000034004C32
:1042D00000440044004C00340004000400000000CE
:1042E0000058006400400040004000400000000012
:1042F000000000000038004400300008004400388E
:104300000000000000200020007800200020002095
:1043100000200018000000000000000000440044DD
:1043200000440044004C0034000000000000000085
:10433000004400440028002800280010000000006D
:1043400000000000005400540054006C00280028B5
:1043500000000000000000000044002800100010D1
:104360000028004400000000000000000044004459
:10437000002800280010001000100060000000005D
:10438000007C0008001000200040007C00000000BD
:104390000018001000100010002000200010001075
:1043A0000010001800100010001000100010001085
:1043B000001000100010001000300010001000105D
:1043C000000800080010001000100030000000007D
:1043D00000000074004C000000000000000000001D
:1043E000F1B582B0B6480090B648407D009908709B
:1043F000B54EB64C1E27B64D6846007A092847D8F8
:1044000001A14000095A8F4412004A008800A80206
:10441000FE003E019A01EE01260262020021002008
:1044200000F07CFC01222900B9A000F0D0FC1E2184
:10443000002000F073FC0122210000BFAAA000F0C0
:10444000C6FC3221002000F069FC0122210000BFDF
:10445000AAA02CE100F0D4FD0021002000F05EFCB9
:1044600001222900AAA000F0B2FC1E21002000F0C9
:1044700055FC0122210000BFA8A000F0A8FC3221B9
:10448000002000F04BFC372000994882009887827A
:104490000FE1904E300090493022FCF7A9FE8F4F7B
:1044A0003000303039003022FCF7A2FE300060309E
:1044B000390030313022FCF79BFE0021002000F053
:1044C0002DFC0122290000BF99A000F080FC7D484E
:1044D000807D002806D1322100F020FC012221003D
:1044E00096A0E4E0022807D13221002000F016FC5B
:1044F0000122210096A0DAE03221002000F00EFC1B
:104500000122210097A0D2E000F07AFD00F078FDB2
:104510000021002000F002FC0122290096A000F0FA
:1045200056FC1E21002000F0F9FB0122210000BFF3
:1045300094A000F04CFC3221002000F0EFFB01229F
:10454000210000BF94A0B2E000F05AFD002100203D
:1045500000F0E4FB0122290094A000F038FC1E21A9
:10456000002000F0DBFB0122210000BF92A000F040
:104570002EFC20205349C8840F851E214B2000F0BB
:10458000CDFB0122210000BF8DA000F020FC6420A3
:104590007084B7843221002000F0C0FB012221008A
:1045A00089A084E000F02CFD0021002000F0B6FB83
:1045B0000122290089A000F00AFC1921002000F046
:1045C000ADFB0122290000BF87A000F000FC4220C3
:1045D0003C49C881192008822121F181308240495B
:1045E0000022CA8108823221002000F097FB0122BC
:1045F000210000BF7FA05AE000F002FD0021002052
:1046000000F08CFB012229007FA000F0E0FB0120DC
:10461000009014238C221921052000F089FC3221FE
:10462000002000F07BFB0122210000BF79A03EE0CA
:1046300000F0E6FC0021002000F070FB01222900C0
:1046400079A000F0C4FB1E21002000F067FB0122CE
:10465000210000BF77A000F0BAFB3221002000F05B
:104660005DFB0122210000BF77A020E001201D4951
:10467000087000F0C5FC0021002000F04FFB012273
:10468000290000BF74A000F0A2FB1E21002000F052
:1046900045FB0122210000BF73A000F098FB3221EE
:1046A000002000F03BFB0122210000BF74A000F0BD
:1046B0008EFB6846007A0349487500F0E5FAF7BDBD
:1046C000F8060020680600204407002000000020B3
:1046D00008000020D40B00201407002098060020BA
:1046E00070070020760000204920636F6F6B2073F5
:1046F0007465616B2077656C6C2D00002020646F01
:104700006E652E20537565206D652E2020000000FB
:104710004D45415420425544445900005072652D86
:1047200050726F6772616D6D6564203D3E000000E0
:104730004D4541542053454C4543540020202020F2
:10474000202020202020204E657874203D3E00004F
:104750003C3D205072657620202020202020202003
:10476000202000003C3D2050726576202020204E05
:10477000657874203D3E000044656C697A696F730A
:104780006F210000507265737320416E792042756D
:1047900074746F6E00000000546F20426567696E8C
:1047A000205265636F7264696E670000204D656119
:1047B000742054656D7020004D4541543A2000002E
:1047C000414D423A200000003C3D2054494D4520D7
:1047D00020202050524F47203D3E000020436F6F65
:1047E0006B2054696D65200030303A30303A3030FB
:1047F000000000003C3D2050524F47202020205414
:10480000454D50203D3E00002050726F6772657329
:10481000732000003C3D2054454D50202020205462
:10482000494D45203D3E000043616E63656C204369
:104830006F6F6B0041726520796F752073757265BB
:1048400020796F750000000077616E7420746F200E
:1048500063616E63656C3F00204D65617420436F3A
:104860006F6B6564200000002050726573732061D7
:104870006E7920627574746F6E20746F2000000072
:1048800020202063616E63656C20616C61726D2015
:1048900020200000F8B5A14F0025A14EA14C617D5C
:1048A000491E082915D801A2525C97440828626E57
:1048B00092A6BAD0EA0007282ED00B2809D100F022
:1048C0009FFB380098493022FCF778FC0220FFF764
:1048D00087FD0120F2BDA57D944907281CD00B2837
:1048E00012D00D280ED00E28F3D1002DF1D06D1E60
:1048F0003800EAB230235A4389183022FCF778FC9A
:10490000A575E3E70420E2E7022DE2D06D1CEFE796
:10491000072801D00B28DCD10120D8E7C01FFBD02D
:10492000001F02D0801E0128D3D8012020758048A6
:1049300005603000FDF75EFE3000FDF76AFE1AE00C
:1049400007281AD00B280DD00D2814D00E28C0D15E
:104950000620BCE7072810D00B280CD00D280AD061
:104960000E28B6D10720B2E7C01F06D0001FEFD037
:10497000801E0128ADD80520A9E70820A7E7C01FA1
:1049800008D0001F02D0801E0128A2D83000FDF7F9
:1049900067FEF0E72575BFE766490D703000FDF74B
:1049A0005FFEF7E7F8B588B05C4E5E4C207D0028CE
:1049B00009D02C20205E2E21715EC91E884202DBA8
:1049C0000920FFF70DFD5C4D607D022806D005280B
:1049D00015D0062830D007287DD09DE01921002071
:1049E00000F09CF932001332310001A800F036FBD0
:1049F000012252493000133000F0E9F98AE02C20FE
:104A0000225E2100183101A800F028FB218DE08CE6
:104A100000F084F94A4C0122210001A800F0D7F9E6
:104A200028202A5E2900143101A800F017FBA98C68
:104A3000688C00F073F948E03D48076838003C2175
:104A4000FCF794FDE17438003C21FCF78FFD3C211C
:104A5000FCF78CFDE9743B4E3800E1210901FCF7BD
:104A600085FDF0744220E081192020822121E98116
:104A700028820021F18130821921422000F04EF974
:104A800013202256210001A800F0E8FA2B4C012245
:104A9000210001A800F09BF9298AE88900F03EF97D
:104AA00013202A56290001A800F0D8FA012221007B
:104AB00001A800F08CF9318AF08900F02FF9132059
:104AC0003256310001A800F0C9FA0122210001A8E4
:104AD00000F07DF91EE02C20205E00F0EFFA0400CB
:104AE0002E20305E00F0EAFA0100200000F0F1FA1A
:104AF000002100F041FB00D2002001210091124969
:104B000000F04DFB00F0A4FB142382B21921052014
:104B100000F04CFA00F0B8F809B0F0BD640C0020C9
:104B20004C0200206806002014070020D40B00204F
:104B30009C0C002076000020440700200800002084
:104B4000000000207007002000000C4380B5AE225A
:104B50000021782000F072FA20220021782000F055
:104B60006DFA10220021782000F068FAB0220021AE
:104B7000782000F063FAC8220021782000F05EFA65
:104B800000220021782000F059FA1022002178201C
:104B900000F054FA40220021782000F04FFA8122E0
:104BA0000021782000F04AFAFF220021782000F04E
:104BB00045FAA1220021782000F040FAA622002127
:104BC000782000F03BFAA8220021782000F036FA85
:104BD0003F220021782000F031FAA4220021782021
:104BE00000F02CFAD3220021782000F027FA0022CE
:104BF0000021782000F022FAD5220021782000F050
:104C00001DFAF0220021782000F018FAD9220021A4
:104C1000782000F013FA22220021782000F00EFA0A
:104C2000DA220021782000F009FA122200217820EF
:104C300000F004FADB220021782000F0FFF92022A6
:104C40000021782000F0FAF98D220021782000F070
:104C5000F5F914220021782000F0F0F9AF220021AC
:104C6000782000F0EBF92E220021782000F0E6F900
:104C7000002000F028F800F007F8AA4800210160A1
:104C800001214171012002BD38B50024A64D22004A
:104C9000B032D2B20021782000F0D0F900220021F9
:104CA000782000F0CBF910220021782000F0C6F91E
:104CB0008023E0012A184021782000F0A8F9641C24
:104CC000082CE4DB31BD80B5002801D1002200E0D2
:104CD000FF228021C9009448FEF7DAFB01BD80283D
:104CE00000DB704710B5402911DA8F4CCB08DB018F
:104CF000C018201801234907490F8B4089490979B9
:104D0000002905D0002A05D001789943017010BD13
:104D1000012AF9D101780B43037010BD814A10803C
:104D200051807047FEB50F007E4909886B46598057
:104D3000694649883B78C918802909DA7949498840
:104D40006B46D9806946C9887B78C918402901DB40
:104D50000020FEBD0021029169460870150002E0A6
:104D60000298401C029079780298884226D278688E
:104D70006A461278203A4A43029951184900465A25
:104D800000246846C088029940186946888003E07C
:104D90006A1E9241D20F0AE038788442E0D2684617
:104DA000408800193100A1400904F1D52A00694664
:104DB000898880B2FFF793FF641CEDE7684640885E
:104DC000397840185749088068460078FEBD70B5AC
:104DD00004000E00150000E0641C2078002806D0B6
:104DE0002A003100FFF79EFF21788842F4D0207816
:104DF00070BDF8B584B006000D001100802E00DBF8
:104E00007F26802900DB7F21402D00DB3F251A0013
:104E1000402B00DB3F228E4201D2881B00E0701A3B
:104E200000B20190954201D2501B00E0A81A00B2D6
:104E3000029001203D4B8E4202D26F46388001E045
:104E40006C462380954200D201230298019CA04227
:104E500001DA204601E004466042C40F20184410E5
:104E60000A98019F002F16D11300AB4201D22A00ED
:104E70001D00B14200D931002CB20F001600050010
:104E800005E02A00A1B23800FFF729FF641C21B217
:104E90008E42F6DA43E0029F002F16D1AA4200D9D3
:104EA0002A000B00B34201D231001E0034B21700B9
:104EB0000E00050005E02A003900A0B2FFF70FFF41
:104EC000641C21B28E42F6DA29E06F46F981694608
:104ED0008A810AA90870029F684643800FE020B2C9
:104EE00001994A42824203DAE41B6946098876182E
:104EF000B84204DA01982418684640882D180AA898
:104F00000278A9B2B0B2FFF7EAFE6946C989B0B229
:104F10008842E4D169468989A8B28842DFD105B0C8
:104F2000F0BD0000940C0020D4070020FFFF00001B
:104F3000FEB50400802838DA6D46A9806946898864
:104F4000402932DA17008018802801DB8020071BF7
:104F50001E008819402803DB402069468988461ACC
:104F6000089D00950B46E21992B22000FFF741FF21
:104F70006846808886190095B3B2E21992B2B1B240
:104F80002000FFF736FF0095B3B222006846818803
:104F90002000FFF72EFF0095B3B2E21992B26846E7
:104FA0008188E01980B2FFF724FFF7BD802800DB7D
:104FB0007047FEB5402922DA8518802D01DB80225A
:104FC000121ACC18402C01DB40235B1A0024089EE7
:104FD00005006846C18082801F006846C0880119AC
:104FE00000968BB2684680882A1892B289B228004F
:104FF000FFF7FFFE641CE4B2B8B2A042EDDAF7BDE1
:1050000080B50020FFF75FFEFFF73EFE01BD78B5DB
:10501000C1B001AC2170002103E0555C66187570C9
:10502000491C9942F9DB642100915B1C9BB201AAE7
:105030000100094800F07EF942B070BDE0B501AB57
:1050400019705A7064210091022301AA01000248DC
:1050500000F070F907BD0000840000200CB418B502
:1050600083B004000A0006A802900194002000907A
:1050700002AB01A9084878441E30FBF71DF8002157
:10508000019A1170002801D40198001B04B0019905
:1050900010BC03B0084700BF03C1FFFF9D21020001
:1050A0000AD002D4491E9218FCD5C905100A12066E
:1050B000524100D3012A4841704700009D2102005F
:1050C000EED55242F446FFF7EBFF0122D207104320
:1050D000604730B405004D400122D20715404B18FF
:1050E0000418240E25D01B0E2CD0FF2C31D0FF2B02
:1050F00034D0E41A0002090210431143430848085F
:10510000D10D1B1A02D2641EDB181B18DB18834258
:1051100000D31B1A4941F9D37F3423DDFF2C05DA74
:10512000E40548086041284330BC7047FF20C005B3
:10513000F9E728001B0E03D0FF2BF5D14902F3D06D
:10514000D043F1E7FF2C01D14002F9D1FF20C00587
:10515000E9E74002F4D1FF2BF8D1F1E7280049023A
:10516000E2D0EDE70B0200202442DCD15B129B1C55
:10517000D9D9D805D7E7FEE70CB4012212060318E7
:10518000DA4207D84B18DA4204D802000A439218D0
:1051900002D288420CBC7047FCD08142FAE730B49E
:1051A00005004D400122D20715404B180418240E6B
:1051B0002ED01B0E32D0FF2C34D0FF2B3AD0E41867
:1051C0000002090210431143000A090A9446C2B2C0
:1051D0004A43000AC3B24B43000A4843110A5B1812
:1051E0001A43D2B2190A091801D44918641E080AD0
:1051F0007F3C23DBFE2C08DAE405090611436346F5
:1052000099416041284330BC7047FF20C005F9E751
:1052100028001B0EFF2BF6D1D043F4E72800FF2C0B
:10522000F1D1F9E74002F7D1FF2B01D14902F3D1C7
:10523000E005E7E7D8054902E4D0EDE743020020A6
:10524000641CDFD15B129B1CDCD9D805DAE7FEE7D2
:105250000122D2070118090E7F3910D449421F31AB
:105260000FD4001805D2C0011043C84000D5D04368
:105270007047C0011043C84005D440427047002029
:1052800070470042F3D510007047FEE770B5040088
:1052900001D1012070BD2500403500266878002826
:1052A00003D12E702000FDF75EFE24206870206878
:1052B000016801229143016060686D4901402068E6
:1052C000016121686B488A6802408A60E1680129AF
:1052D000A16801D1C24301E0842212020A4321687D
:1052E0008A60E168022903D18021090122685160A6
:1052F00021684A68604B13434B602168CA681040BC
:10530000C860206961690143A069000208432168FF
:10531000C860E069216A0143206801602068016873
:1053200001220A4302606E60202068702663AE701E
:10533000002070BDFEB504000F0016001D004030B7
:105340004078202800D090E04020205C012800D147
:105350008BE0012040216054FEF786FC0190009014
:1053600019230122D103200000F09CF800287AD1F3
:1053700021202100403148701020210040318870E8
:1053800000202100403148606662658560633B48CB
:10539000089E618DFF290BD9FF2121850090802374
:1053A0005B04FF223900200000F03BF9019D11E071
:1053B000628D2285009080239B04D2B2F2E7FF2009
:1053C00020850020009080235B04FF22390020000C
:1053D00000F027F9608D00282DD02A003100200030
:1053E00000F08DF800283ED1606A0078216888625C
:1053F000606A401C60622248618D09186185218DB8
:1054000008182085618D0029E4D00004E2D10095C0
:10541000330000228021200000F044F8002822D12F
:10542000608DFF28CBD8628D2285002000908023DC
:105430009B04D2B2CAE731002A00200000F089F8AC
:1054400001000ED120202268D061226853680D4DE2
:105450001D405560220040325070002000239370A0
:105460001070080002D00120FEBD0220FEBD000029
:10547000FFFFFFF0FF7FFFFF0080000200200080A1
:10548000FFFF000000E800FE00688169890701D580
:1054900000218162012182690A4002D1826911439F
:1054A00081617047F8B5002405000F00684602705E
:1054B0001E00286880693840B84201D1012000E010
:1054C000002069460978884217D10020C0438642EF
:1054D000EFD0FEF7C9FB0699401A864201D3002E91
:1054E000E7D128004030202142680A4342604170E1
:1054F0000021817004700120F2BD0020F2BD70B562
:1055000004000D0016002068806980071FD4320057
:105510002900200000F044F8002801D0012070BDCF
:105520000020C0438542EED0FEF79EFB801B8542E3
:1055300001D3002DE7D120004030202142680A43EA
:10554000426041700021002282700170E6E7002075
:1055500070BDF8B5202504000E0017002068806992
:1055600028401BD13A003100200000F019F8002833
:1055700007D1FEF779FBC01B864204D3002EEDD184
:1055800001E00120F2BD2000403041682943416024
:1055900045700021002282700170F2E70020F2BD08
:1055A000F8B5036810249D69254038D05D68AD01C9
:1055B00003D45D68A6022E435E6005000F000092D2
:1055C000202628688169314011D10020C0438742DC
:1055D000F7D0FEF749FB0099401A874201D3002F0C
:1055E000EFD12800403041683143416010E0C46190
:1055F0002868C6612800FFF747FF28684168114AFC
:105600000A40426028004030416804220A43426058
:10561000467000210022827001700120F2BD00203E
:10562000F2BDF0B5059C00684568660D064F37432E
:10563000BD438905890D294312040A4313431C43C2
:105640004460F0BD00E800FEFF63FF03F0B597B0D3
:10565000FDF7BAFD00F0CAFA14216846FDF716FFFF
:105660000127D64801683943016001683940059136
:105670000599022102680A430260026811400591FF
:1056800005990426016831430160006830400590A7
:1056900005988824A400A025ED05012221002800FA
:1056A000FDF773FE01228021D848FDF76EFE0094BD
:1056B000019700240294039469462800FDF7AEFD8B
:1056C00061200090019402946946D148FDF7A6FD3F
:1056D000280D00900194029469462800FDF79EFD74
:1056E000802000900197029403946946C748FDF713
:1056F00095FD68460021002200230EC0C54DC64816
:10570000286030076860AC60EC608020000628618B
:105710006E612C83AC76EF6120216F546C62AC62B9
:105720002C216C542C636C633C216C54EC64280079
:10573000FDF7C7FE002801D000F0B6FACC48009073
:10574000019769462800FEF7E7F8002801D000F02D
:10575000ABFAC848009069462800FEF7DDF800283B
:1057600001D000F0A1FAC448009069462800FEF775
:10577000D3F8002801D000F097FA2E006436BF4815
:105780003061BF487061B461F76134627462B462C1
:10579000F462346328007430FFF778FD002801D0EC
:1057A00000F082FA00212800743000F07FFA00280F
:1057B00001D000F079FA00212800743000F093FA4B
:1057C000002801D000F070FA684600210022002372
:1057D0000EC01C2110A8FDF759FE342103A8FDF7C7
:1057E00055FEC848F06534667466C748B066F4660E
:1057F000346774672F00C0373800FCF779FF002842
:1058000001D000F051FA00940194029469463800E6
:1058100000F092FA002801D000F046FA60201090C3
:10582000119412941394149415941694042210A9AC
:105830003800FDF717F9002801D000F035FA03947D
:10584000049405940694079480208001089009949C
:105850000A940B9400030C900D940E940F9403A9DA
:10586000380000F09AFA002801D000F01DFA380044
:10587000FDF7F3FB68460021002200230EC01C2127
:10588000FDF704FED7488621490068506818446037
:1058900084609D486918C86086204000281804610B
:1058A0008620400028188461862040002818FCF7D4
:1058B0001FFF002801D000F0F7F900940294694618
:1058C00086204000281800F037FA002801D000F0A8
:1058D000EBF960200390049405940794002203A937
:1058E000AC302818FDF7BEF8002801D000F0DCF934
:1058F000862040002818FDF7B0FB684600210022F2
:1059000000230EC01C21FDF7C1FD34210AA8FDF7BC
:10591000BDFDD22040002F18B348F8643C657C657B
:105920007948B865FC653C667C66F820400028181C
:10593000FCF7DEFE002801D000F0B6F900940294D6
:105940006946F8204000281800F0F6F9002801D038
:1059500000F0AAF96020039004940594069407943B
:1059600008940994002203A9F82040002818FDF7A4
:1059700079F8002801D000F097F90A940B940C9460
:105980000D940E94802080010F90109416940AA913
:10599000F8204000281800F000FA002801D000F09C
:1059A00083F9F82040002818FDF757FB68460021CE
:1059B000002200230EC0AB48AB4901E03410024086
:1059C000C164AA4901654465090981654466AC2042
:1059D00040002818FCF70EFE002801D000F064F902
:1059E000009402946946AC204000281800F0A4F905
:1059F000002801D000F058F91C216846FDF746FD4B
:105A00009B4838607C60BC609A4807E00008005002
:105A1000000400501000002000240140F8603C61A8
:105A2000BC613800FCF7E6FD002801D000F03CF92D
:105A30003800FCF75DFE002801D000F035F9602049
:105A400000908D4801900294049400226946380029
:105A5000FDF708F8002801D000F026F93800FDF71E
:105A6000FCFA86488F218900685080480AE000BF10
:105A7000100000100002002400000140005400400B
:105A80005B3D3000691848608F20800028188460D2
:105A9000FA2080008F2189006918C8608F2080005B
:105AA000281804618F208000281844618F2080000E
:105AB000281884618F2080002818FCF79BFD00289F
:105AC00001D000F0F1F8FFF741F8FFF799FA002054
:105AD000FEF786FC6A4800F0C7F96A488F21890002
